:020000040000FA
:10000000860185018316003086001F30850083122B
:1000100005182928000085180F280000082801303D
:1000200086004320023086004320043086004320AF
:1000300008308600432010308600432020308600A0
:100040004320403086004320803086004320061C39
:100050000F28803086004320403086004320203027
:10006000860043201030860043200830860043205D
:100070000430860043200230860043200130860091
:100080004320861F29286400C830A1004728A830D3
:0C009000A000A00B4928A10B4728080085
:02400E00F53F7C
:00000001FF
